{
  "abi": [
    {
      "inputs": [],
      "stateMutability": "nonpayable",
      "type": "constructor"
    },
    {
      "inputs": [],
      "name": "NotEnoughRPLStake",
      "type": "error"
    },
    {
      "inputs": [
        {
          "internalType": "bytes",
          "name": "_vali",
          "type": "bytes"
        }
      ],
      "name": "ValidatorAlreadySet",
      "type": "error"
    },
    {
      "anonymous": false,
      "inputs": [
        {
          "indexed": true,
          "internalType": "address",
          "name": "account",
          "type": "address"
        },
        {
          "indexed": true,
          "internalType": "address",
          "name": "operator",
          "type": "address"
        },
        {
          "indexed": false,
          "internalType": "bool",
          "name": "approved",
          "type": "bool"
        }
      ],
      "name": "ApprovalForAll",
      "type": "event"
    },
    {
      "anonymous": false,
      "inputs": [
        {
          "indexed": false,
          "internalType": "uint256",
          "name": "_newLimit",
          "type": "uint256"
        }
      ],
      "name": "ETHLimitChanged",
      "type": "event"
    },
    {
      "anonymous": false,
      "inputs": [
        {
          "indexed": true,
          "internalType": "address",
          "name": "previousOwner",
          "type": "address"
        },
        {
          "indexed": true,
          "internalType": "address",
          "name": "newOwner",
          "type": "address"
        }
      ],
      "name": "OwnershipTransferred",
      "type": "event"
    },
    {
      "anonymous": false,
      "inputs": [
        {
          "indexed": false,
          "internalType": "uint256",
          "name": "_availRPL",
          "type": "uint256"
        },
        {
          "indexed": false,
          "internalType": "uint256",
          "name": "_requiredRPL",
          "type": "uint256"
        }
      ],
      "name": "RPLStakeRequired",
      "type": "event"
    },
    {
      "anonymous": false,
      "inputs": [
        {
          "indexed": false,
          "internalType": "address",
          "name": "_newAddress",
          "type": "address"
        }
      ],
      "name": "RocketPoolNodeAddressChanged",
      "type": "event"
    },
    {
      "anonymous": false,
      "inputs": [
        {
          "indexed": true,
          "internalType": "address",
          "name": "operator",
          "type": "address"
        },
        {
          "indexed": true,
          "internalType": "address",
          "name": "from",
          "type": "address"
        },
        {
          "indexed": true,
          "internalType": "address",
          "name": "to",
          "type": "address"
        },
        {
          "indexed": false,
          "internalType": "uint256[]",
          "name": "ids",
          "type": "uint256[]"
        },
        {
          "indexed": false,
          "internalType": "uint256[]",
          "name": "values",
          "type": "uint256[]"
        }
      ],
      "name": "TransferBatch",
      "type": "event"
    },
    {
      "anonymous": false,
      "inputs": [
        {
          "indexed": true,
          "internalType": "address",
          "name": "operator",
          "type": "address"
        },
        {
          "indexed": true,
          "internalType": "address",
          "name": "from",
          "type": "address"
        },
        {
          "indexed": true,
          "internalType": "address",
          "name": "to",
          "type": "address"
        },
        {
          "indexed": false,
          "internalType": "uint256",
          "name": "id",
          "type": "uint256"
        },
        {
          "indexed": false,
          "internalType": "uint256",
          "name": "value",
          "type": "uint256"
        }
      ],
      "name": "TransferSingle",
      "type": "event"
    },
    {
      "anonymous": false,
      "inputs": [
        {
          "indexed": false,
          "internalType": "string",
          "name": "value",
          "type": "string"
        },
        {
          "indexed": true,
          "internalType": "uint256",
          "name": "id",
          "type": "uint256"
        }
      ],
      "name": "URI",
      "type": "event"
    },
    {
      "anonymous": false,
      "inputs": [
        {
          "indexed": false,
          "internalType": "uint256",
          "name": "_tokenID",
          "type": "uint256"
        },
        {
          "indexed": false,
          "internalType": "address",
          "name": "_user",
          "type": "address"
        },
        {
          "indexed": false,
          "internalType": "uint256",
          "name": "_fee",
          "type": "uint256"
        },
        {
          "indexed": false,
          "internalType": "uint256",
          "name": "_stakedETH",
          "type": "uint256"
        }
      ],
      "name": "UserRequestedWithdrawal",
      "type": "event"
    },
    {
      "inputs": [
        {
          "internalType": "address",
          "name": "account",
          "type": "address"
        },
        {
          "internalType": "uint256",
          "name": "id",
          "type": "uint256"
        }
      ],
      "name": "balanceOf",
      "outputs": [
        {
          "internalType": "uint256",
          "name": "",
          "type": "uint256"
        }
      ],
      "stateMutability": "view",
      "type": "function"
    },
    {
      "inputs": [
        {
          "internalType": "address[]",
          "name": "accounts",
          "type": "address[]"
        },
        {
          "internalType": "uint256[]",
          "name": "ids",
          "type": "uint256[]"
        }
      ],
      "name": "balanceOfBatch",
      "outputs": [
        {
          "internalType": "uint256[]",
          "name": "",
          "type": "uint256[]"
        }
      ],
      "stateMutability": "view",
      "type": "function"
    },
    {
      "inputs": [
        {
          "internalType": "uint256",
          "name": "_newLimit",
          "type": "uint256"
        }
      ],
      "name": "changeETHLimit",
      "outputs": [],
      "stateMutability": "nonpayable",
      "type": "function"
    },
    {
      "inputs": [],
      "name": "closeSoloVault",
      "outputs": [],
      "stateMutability": "nonpayable",
      "type": "function"
    },
    {
      "inputs": [],
      "name": "contractURI",
      "outputs": [
        {
          "internalType": "string",
          "name": "",
          "type": "string"
        }
      ],
      "stateMutability": "pure",
      "type": "function"
    },
    {
      "inputs": [],
      "name": "depositSoloVault",
      "outputs": [],
      "stateMutability": "payable",
      "type": "function"
    },
    {
      "inputs": [
        {
          "internalType": "uint256",
          "name": "id",
          "type": "uint256"
        }
      ],
      "name": "exists",
      "outputs": [
        {
          "internalType": "bool",
          "name": "",
          "type": "bool"
        }
      ],
      "stateMutability": "view",
      "type": "function"
    },
    {
      "inputs": [],
      "name": "getAvailableRPLStake",
      "outputs": [
        {
          "internalType": "uint256",
          "name": "",
          "type": "uint256"
        }
      ],
      "stateMutability": "view",
      "type": "function"
    },
    {
      "inputs": [],
      "name": "getBalance",
      "outputs": [
        {
          "internalType": "uint256",
          "name": "",
          "type": "uint256"
        }
      ],
      "stateMutability": "view",
      "type": "function"
    },
    {
      "inputs": [],
      "name": "getCurrentEthLimit",
      "outputs": [
        {
          "internalType": "uint256",
          "name": "",
          "type": "uint256"
        }
      ],
      "stateMutability": "view",
      "type": "function"
    },
    {
      "inputs": [
        {
          "internalType": "uint256",
          "name": "_tokenID",
          "type": "uint256"
        }
      ],
      "name": "getMetadata",
      "outputs": [
        {
          "components": [
            {
              "internalType": "uint256",
              "name": "stakedETH",
              "type": "uint256"
            },
            {
              "internalType": "uint256",
              "name": "stakedTimestamp",
              "type": "uint256"
            },
            {
              "internalType": "bool",
              "name": "institution",
              "type": "bool"
            },
            {
              "internalType": "bytes32",
              "name": "institutionName",
              "type": "bytes32"
            },
            {
              "internalType": "bool",
              "name": "institutionVerified",
              "type": "bool"
            }
          ],
          "internalType": "struct BlockscapeSoloVault.Metadata",
          "name": "",
          "type": "tuple"
        },
        {
          "internalType": "bytes",
          "name": "",
          "type": "bytes"
        }
      ],
      "stateMutability": "view",
      "type": "function"
    },
    {
      "inputs": [],
      "name": "getReqRPLStake",
      "outputs": [
        {
          "internalType": "uint256",
          "name": "",
          "type": "uint256"
        }
      ],
      "stateMutability": "view",
      "type": "function"
    },
    {
      "inputs": [],
      "name": "getTokenID",
      "outputs": [
        {
          "internalType": "uint256",
          "name": "",
          "type": "uint256"
        }
      ],
      "stateMutability": "view",
      "type": "function"
    },
    {
      "inputs": [],
      "name": "hasNodeEnoughRPLStake",
      "outputs": [
        {
          "internalType": "bool",
          "name": "",
          "type": "bool"
        }
      ],
      "stateMutability": "view",
      "type": "function"
    },
    {
      "inputs": [
        {
          "internalType": "address",
          "name": "account",
          "type": "address"
        },
        {
          "internalType": "address",
          "name": "operator",
          "type": "address"
        }
      ],
      "name": "isApprovedForAll",
      "outputs": [
        {
          "internalType": "bool",
          "name": "",
          "type": "bool"
        }
      ],
      "stateMutability": "view",
      "type": "function"
    },
    {
      "inputs": [],
      "name": "isVaultOpen",
      "outputs": [
        {
          "internalType": "bool",
          "name": "",
          "type": "bool"
        }
      ],
      "stateMutability": "view",
      "type": "function"
    },
    {
      "inputs": [],
      "name": "name",
      "outputs": [
        {
          "internalType": "string",
          "name": "",
          "type": "string"
        }
      ],
      "stateMutability": "view",
      "type": "function"
    },
    {
      "inputs": [],
      "name": "openSoloVault",
      "outputs": [],
      "stateMutability": "nonpayable",
      "type": "function"
    },
    {
      "inputs": [],
      "name": "owner",
      "outputs": [
        {
          "internalType": "address",
          "name": "",
          "type": "address"
        }
      ],
      "stateMutability": "view",
      "type": "function"
    },
    {
      "inputs": [],
      "name": "renounceOwnership",
      "outputs": [],
      "stateMutability": "nonpayable",
      "type": "function"
    },
    {
      "inputs": [
        {
          "internalType": "address",
          "name": "from",
          "type": "address"
        },
        {
          "internalType": "address",
          "name": "to",
          "type": "address"
        },
        {
          "internalType": "uint256[]",
          "name": "ids",
          "type": "uint256[]"
        },
        {
          "internalType": "uint256[]",
          "name": "amounts",
          "type": "uint256[]"
        },
        {
          "internalType": "bytes",
          "name": "data",
          "type": "bytes"
        }
      ],
      "name": "safeBatchTransferFrom",
      "outputs": [],
      "stateMutability": "nonpayable",
      "type": "function"
    },
    {
      "inputs": [
        {
          "internalType": "address",
          "name": "from",
          "type": "address"
        },
        {
          "internalType": "address",
          "name": "to",
          "type": "address"
        },
        {
          "internalType": "uint256",
          "name": "id",
          "type": "uint256"
        },
        {
          "internalType": "uint256",
          "name": "amount",
          "type": "uint256"
        },
        {
          "internalType": "bytes",
          "name": "data",
          "type": "bytes"
        }
      ],
      "name": "safeTransferFrom",
      "outputs": [],
      "stateMutability": "nonpayable",
      "type": "function"
    },
    {
      "inputs": [
        {
          "internalType": "address",
          "name": "operator",
          "type": "address"
        },
        {
          "internalType": "bool",
          "name": "approved",
          "type": "bool"
        }
      ],
      "name": "setApprovalForAll",
      "outputs": [],
      "stateMutability": "nonpayable",
      "type": "function"
    },
    {
      "inputs": [
        {
          "internalType": "address",
          "name": "_newBlockscapeRocketPoolNode",
          "type": "address"
        }
      ],
      "name": "setBlockscapeRocketPoolNode",
      "outputs": [],
      "stateMutability": "nonpayable",
      "type": "function"
    },
    {
      "inputs": [
        {
          "internalType": "uint256",
          "name": "_amount",
          "type": "uint256"
        }
      ],
      "name": "setWithdrawFee",
      "outputs": [],
      "stateMutability": "nonpayable",
      "type": "function"
    },
    {
      "inputs": [
        {
          "internalType": "bytes4",
          "name": "interfaceId",
          "type": "bytes4"
        }
      ],
      "name": "supportsInterface",
      "outputs": [
        {
          "internalType": "bool",
          "name": "",
          "type": "bool"
        }
      ],
      "stateMutability": "view",
      "type": "function"
    },
    {
      "inputs": [],
      "name": "symbol",
      "outputs": [
        {
          "internalType": "string",
          "name": "",
          "type": "string"
        }
      ],
      "stateMutability": "view",
      "type": "function"
    },
    {
      "inputs": [],
      "name": "totalSupply",
      "outputs": [
        {
          "internalType": "uint256",
          "name": "",
          "type": "uint256"
        }
      ],
      "stateMutability": "view",
      "type": "function"
    },
    {
      "inputs": [
        {
          "internalType": "uint256",
          "name": "id",
          "type": "uint256"
        }
      ],
      "name": "totalSupply",
      "outputs": [
        {
          "internalType": "uint256",
          "name": "",
          "type": "uint256"
        }
      ],
      "stateMutability": "view",
      "type": "function"
    },
    {
      "inputs": [
        {
          "internalType": "address",
          "name": "newOwner",
          "type": "address"
        }
      ],
      "name": "transferOwnership",
      "outputs": [],
      "stateMutability": "nonpayable",
      "type": "function"
    },
    {
      "inputs": [
        {
          "internalType": "uint256",
          "name": "_tokenID",
          "type": "uint256"
        },
        {
          "internalType": "bytes",
          "name": "_vali",
          "type": "bytes"
        }
      ],
      "name": "updateValidator",
      "outputs": [],
      "stateMutability": "nonpayable",
      "type": "function"
    },
    {
      "inputs": [
        {
          "internalType": "uint256",
          "name": "_tokenID",
          "type": "uint256"
        }
      ],
      "name": "uri",
      "outputs": [
        {
          "internalType": "string",
          "name": "",
          "type": "string"
        }
      ],
      "stateMutability": "pure",
      "type": "function"
    },
    {
      "inputs": [
        {
          "internalType": "uint256",
          "name": "_tokenID",
          "type": "uint256"
        }
      ],
      "name": "userRequestWithdraw",
      "outputs": [
        {
          "internalType": "uint256",
          "name": "_amount",
          "type": "uint256"
        }
      ],
      "stateMutability": "nonpayable",
      "type": "function"
    },
    {
      "inputs": [
        {
          "internalType": "uint256",
          "name": "_tokenID",
          "type": "uint256"
        }
      ],
      "name": "viewUserRequestWithdraw",
      "outputs": [
        {
          "internalType": "uint256",
          "name": "_amount",
          "type": "uint256"
        }
      ],
      "stateMutability": "view",
      "type": "function"
    },
    {
      "inputs": [
        {
          "internalType": "uint256",
          "name": "_amount",
          "type": "uint256"
        }
      ],
      "name": "withdraw",
      "outputs": [],
      "stateMutability": "nonpayable",
      "type": "function"
    },
    {
      "inputs": [],
      "name": "withdrawBatch",
      "outputs": [],
      "stateMutability": "nonpayable",
      "type": "function"
    }
  ],
  "bytecode": {
    "object": "0x600680546001600160a01b03191673f6132f532abc3902ea2dcae7f8d7fccdf7ba49821790556801158e460913d0000060075567de0b6b3a764000006008556009805460ff191690556001600a556f636f6e74726163742e6164647265737360801b60a090815270726f636b65744e6f64655374616b696e6760781b60b0526021608081905260c1604081905291206321f8a72160e01b90915260c552731d8f8f00cfa6758d7be78336684788fb0ee0fa466321f8a72160e5602060405180830381865afa158015620000d6573d6000803e3d6000fd5b505050506040513d601f19601f82011682018060405250810190620000fc9190620001d5565b600b80546001600160a01b03929092166001600160a01b03199283168117909155600c80549092161790553480156200013457600080fd5b506040518060a00160405280606d815260200162003afe606d91396200015a8162000171565b5060016004556200016b3362000183565b62000378565b60026200017f8282620002ac565b5050565b600580546001600160a01b038381166001600160a01b0319831681179093556040519116919082907f8be0079c531659141344cd1fd0a4f28419497f9722a3daafe3b4186f6b6457e090600090a35050565b600060208284031215620001e857600080fd5b81516001600160a01b03811681146200020057600080fd5b9392505050565b634e487b7160e01b600052604160045260246000fd5b600181811c908216806200023257607f821691505b6020821081036200025357634e487b7160e01b600052602260045260246000fd5b50919050565b601f821115620002a757600081815260208120601f850160051c81016020861015620002825750805b601f850160051c820191505b81811015620002a3578281556001016200028e565b5050505b505050565b81516001600160401b03811115620002c857620002c862000207565b620002e081620002d984546200021d565b8462000259565b602080601f831160018114620003185760008415620002ff5750858301515b600019600386901b1c1916600185901b178555620002a3565b600085815260208120601f198616915b82811015620003495788860151825594840194600190910190840162000328565b5085821015620003685787850151600019600388901b60f8161c191681555b5050505050600190811b01905550565b61377680620003886000396000f3fe60806040526004361061024e5760003560e01c80638d8b7ca911610138578063ccae8a8d116100b0578063f242432a1161007f578063f6b21af211610064578063f6b21af2146106e9578063f6b76685146106fe578063f9d7afd71461071e57600080fd5b8063f242432a146106a9578063f2fde38b146106c957600080fd5b8063ccae8a8d1461061e578063e8a3d48514610626578063e985e9c51461063b578063ec36d35e1461069157600080fd5b8063a22cb46511610107578063b1251026116100ec578063b1251026146105b1578063b6ac642a146105d1578063bd85b039146105f157600080fd5b8063a22cb46514610563578063a574cea41461058357600080fd5b80638d8b7ca9146104b05780638da5cb5b146104d057806395d89b41146105055780639fe8d3aa1461054e57600080fd5b8063354228be116101cb57806366f9fa3a1161019a5780636ea5ba1a1161017f5780636ea5ba1a1461045b578063715018a61461047b5780638776d1d71461049057600080fd5b806366f9fa3a146104315780636ba367a31461044657600080fd5b8063354228be146103ab5780634e1273f4146103c05780634f558e79146103ed57806363b613f21461041c57600080fd5b80630e89341c1161022257806318160ddd1161020757806318160ddd146103545780632e1a7d4d146103695780632eb2c2d61461038b57600080fd5b80630e89341c1461032157806312065fe01461034157600080fd5b8062fdd58e1461025357806301ffc9a71461028657806302943854146102b657806306fdde03146102cb575b600080fd5b34801561025f57600080fd5b5061027361026e366004612a92565b610733565b6040519081526020015b60405180910390f35b34801561029257600080fd5b506102a66102a1366004612aea565b610813565b604051901515815260200161027d565b3480156102c257600080fd5b506102736108f6565b3480156102d757600080fd5b506103146040518060400160405280601581526020017f426c6f636b736361706520536f6c6f205661756c74000000000000000000000081525081565b60405161027d9190612b7c565b34801561032d57600080fd5b5061031461033c366004612b8f565b610a50565b34801561034d57600080fd5b5047610273565b34801561036057600080fd5b50610273610a81565b34801561037557600080fd5b50610389610384366004612b8f565b610b99565b005b34801561039757600080fd5b506103896103a6366004612d49565b610bec565b3480156103b757600080fd5b50600854610273565b3480156103cc57600080fd5b506103e06103db366004612df3565b610cb5565b60405161027d9190612ef9565b3480156103f957600080fd5b506102a6610408366004612b8f565b600090815260036020526040902054151590565b34801561042857600080fd5b50610389610e0d565b34801561043d57600080fd5b506102a6610e1c565b34801561045257600080fd5b50600a54610273565b34801561046757600080fd5b50610273610476366004612b8f565b610f87565b34801561048757600080fd5b50610389611003565b34801561049c57600080fd5b506102736104ab366004612b8f565b611017565b3480156104bc57600080fd5b506103896104cb366004612f0c565b6110a3565b3480156104dc57600080fd5b5060055460405173ffffffffffffffffffffffffffffffffffffffff909116815260200161027d565b34801561051157600080fd5b506103146040518060400160405280600381526020017f425356000000000000000000000000000000000000000000000000000000000081525081565b34801561055a57600080fd5b5061027361122b565b34801561056f57600080fd5b5061038961057e366004612f49565b6112c5565b34801561058f57600080fd5b506105a361059e366004612b8f565b6112d0565b60405161027d929190612f85565b3480156105bd57600080fd5b506103896105cc366004612b8f565b6113f3565b3480156105dd57600080fd5b506103896105ec366004612b8f565b611437565b3480156105fd57600080fd5b5061027361060c366004612b8f565b60009081526003602052604090205490565b610389611444565b34801561063257600080fd5b506103146114fc565b34801561064757600080fd5b506102a6610656366004612fd3565b73ffffffffffffffffffffffffffffffffffffffff918216600090815260016020908152604080832093909416825291909152205460ff1690565b34801561069d57600080fd5b5060095460ff166102a6565b3480156106b557600080fd5b506103896106c4366004613006565b61151c565b3480156106d557600080fd5b506103896106e436600461306b565b6115de565b3480156106f557600080fd5b50610389611695565b34801561070a57600080fd5b5061038961071936600461306b565b6116b5565b34801561072a57600080fd5b50610389611730565b600073ffffffffffffffffffffffffffffffffffffffff83166107dd576040517f08c379a000000000000000000000000000000000000000000000000000000000815260206004820152602a60248201527f455243313135353a2061646472657373207a65726f206973206e6f742061207660448201527f616c6964206f776e65720000000000000000000000000000000000000000000060648201526084015b60405180910390fd5b5060008181526020818152604080832073ffffffffffffffffffffffffffffffffffffffff861684529091529020545b92915050565b60007fffffffff0000000000000000000000000000000000000000000000000000000082167fd9b67a260000000000000000000000000000000000000000000000000000000014806108a657507fffffffff0000000000000000000000000000000000000000000000000000000082167f0e89341c00000000000000000000000000000000000000000000000000000000145b8061080d57507f01ffc9a7000000000000000000000000000000000000000000000000000000007fffffffff0000000000000000000000000000000000000000000000000000000083161461080d565b600c546006546040517f90f7ff4c00000000000000000000000000000000000000000000000000000000815273ffffffffffffffffffffffffffffffffffffffff9182166004820152600092839216906390f7ff4c90602401602060405180830381865afa15801561096c573d6000803e3d6000fd5b505050506040513d601f19601f820116820180604052508101906109909190613086565b600c546006546040517f03fa87b400000000000000000000000000000000000000000000000000000000815273ffffffffffffffffffffffffffffffffffffffff91821660048201529293506000929116906303fa87b490602401602060405180830381865afa158015610a08573d6000803e3d6000fd5b505050506040513d601f19601f82011682018060405250810190610a2c9190613086565b905081600003610a3f5760009250505090565b610a4982826130ce565b9250505090565b6060610a5b8261178a565b604051602001610a6b9190613109565b6040516020818303038152906040529050919050565b60008060015b3073ffffffffffffffffffffffffffffffffffffffff16636ba367a36040518163ffffffff1660e01b8152600401602060405180830381865afa158015610ad2573d6000803e3d6000fd5b505050506040513d601f19601f82011682018060405250810190610af69190613086565b8111610b93576040517fbd85b03900000000000000000000000000000000000000000000000000000000815260048101829052309063bd85b03990602401602060405180830381865afa158015610b51573d6000803e3d6000fd5b505050506040513d601f19601f82011682018060405250810190610b759190613086565b610b7f90836131e7565b915080610b8b816131fa565b915050610a87565b50919050565b610ba1611848565b60055460405173ffffffffffffffffffffffffffffffffffffffff9091169082156108fc029083906000818181858888f19350505050158015610be8573d6000803e3d6000fd5b5050565b73ffffffffffffffffffffffffffffffffffffffff8516331480610c155750610c158533610656565b610ca1576040517f08c379a000000000000000000000000000000000000000000000000000000000815260206004820152602e60248201527f455243313135353a2063616c6c6572206973206e6f7420746f6b656e206f776e60448201527f6572206f7220617070726f76656400000000000000000000000000000000000060648201526084016107d4565b610cae85858585856118c9565b5050505050565b60608151835114610d48576040517f08c379a000000000000000000000000000000000000000000000000000000000815260206004820152602960248201527f455243313135353a206163636f756e747320616e6420696473206c656e67746860448201527f206d69736d61746368000000000000000000000000000000000000000000000060648201526084016107d4565b6000835167ffffffffffffffff811115610d6457610d64612ba8565b604051908082528060200260200182016040528015610d8d578160200160208202803683370190505b50905060005b8451811015610e0557610dd8858281518110610db157610db1613232565b6020026020010151858381518110610dcb57610dcb613232565b6020026020010151610733565b828281518110610dea57610dea613232565b6020908102919091010152610dfe816131fa565b9050610d93565b509392505050565b610e15611848565b6000600955565b600c546006546040517f90f7ff4c00000000000000000000000000000000000000000000000000000000815273ffffffffffffffffffffffffffffffffffffffff9182166004820152600092839216906390f7ff4c90602401602060405180830381865afa158015610e92573d6000803e3d6000fd5b505050506040513d601f19601f82011682018060405250810190610eb69190613086565b905080600003610ec857600091505090565b600c546006546040517f9961cee400000000000000000000000000000000000000000000000000000000815273ffffffffffffffffffffffffffffffffffffffff91821660048201526000929190911690639961cee490602401602060405180830381865afa158015610f3f573d6000803e3d6000fd5b505050506040513d601f19601f82011682018060405250810190610f639190613086565b90506000610f6f6108f6565b90506000610f7d8284613261565b1015935050505090565b600080610f9383611017565b90506001610fa13385610733565b1061080d576000838152600d60209081526040918290205482518681523392810192909252818301849052606082015290517f57e8bc4c74baca16ab16c5cc83fa0bc416b230ea2a49969e56a6fe1b5ea5a8639181900360800190a192915050565b61100b611848565b6110156000611c11565b565b60075460009060016110293385610733565b1061080d5760006301e1338060075461104291906130ce565b6000858152600d6020526040812060010154919250906110629042613261565b90506301d52bd0808210611080576706f05b59d3b20000935061109a565b61108a8284613274565b6007546110979190613261565b93505b50505092915050565b6110ab611848565b61115f60405180602001604052806000815250600e600085815260200190815260200160002080546110dc906132b1565b80601f0160208091040260200160405190810160405280929190818152602001828054611108906132b1565b80156111555780601f1061112a57610100808354040283529160200191611155565b820191906000526020600020905b81548152906001019060200180831161113857829003601f168201915b5050505050611c88565b6111a5576000828152600e60205260409081902090517f47b41d480000000000000000000000000000000000000000000000000000000081526107d491906004016132fe565b6000828152600e602052604090206111bd82826133ed565b506111c6610e1c565b156111d357610be8611730565b60006111dd61122b565b905060006111e96108f6565b60408051848152602081018390529192507f6cac971587f3485cf88026d10806eb012734ef89e176a8317db787673df0bc86910160405180910390a150505050565b600c546006546040517f9961cee400000000000000000000000000000000000000000000000000000000815273ffffffffffffffffffffffffffffffffffffffff918216600482015260009283921690639961cee490602401602060405180830381865afa1580156112a1573d6000803e3d6000fd5b505050506040513d601f19601f8201168201806040525081019061080d9190613086565b610be8338383611ce1565b6040805160a0810182526000808252602082018190529181018290526060810182905260808101919091526000828152600d60209081526040808320600e835292819020815160a08101835284548152600185015493810193909352600284015460ff9081161515928401929092526003840154606084810191909152600490940154909116151560808301528054819061136a906132b1565b80601f0160208091040260200160405190810160405280929190818152602001828054611396906132b1565b80156113e35780601f106113b8576101008083540402835291602001916113e3565b820191906000526020600020905b8154815290600101906020018083116113c657829003601f168201915b5050505050905091509150915091565b6113fb611848565b60088190556040518181527ff5ef0716d925ac1ef70d8b610f013c7fd7cd03f9120fb486f0c4f18b4ef6f5c5906020015b60405180910390a150565b61143f611848565b600755565b61144c611e34565b60085460095461145b57600080fd5b80341461146757600080fd5b5060085434146114d3576040517f08c379a000000000000000000000000000000000000000000000000000000000815260206004820152601060248201527f496e73756666696369656e74204554480000000000000000000000000000000060448201526064016107d4565b6114df34600a54611ea7565b600a805460010190556114f26000600955565b6110156001600455565b60606040518060800160405280605381526020016136ee60539139905090565b73ffffffffffffffffffffffffffffffffffffffff851633148061154557506115458533610656565b6115d1576040517f08c379a000000000000000000000000000000000000000000000000000000000815260206004820152602e60248201527f455243313135353a2063616c6c6572206973206e6f7420746f6b656e206f776e60448201527f6572206f7220617070726f76656400000000000000000000000000000000000060648201526084016107d4565b610cae8585858585611f77565b6115e6611848565b73ffffffffffffffffffffffffffffffffffffffff8116611689576040517f08c379a000000000000000000000000000000000000000000000000000000000815260206004820152602660248201527f4f776e61626c653a206e6577206f776e657220697320746865207a65726f206160448201527f646472657373000000000000000000000000000000000000000000000000000060648201526084016107d4565b61169281611c11565b50565b61169d611848565b600954156116aa57600080fd5b611015600854610b99565b6116bd611848565b600680547fffffffffffffffffffffffff00000000000000000000000000000000000000001673ffffffffffffffffffffffffffffffffffffffff83169081179091556040519081527f234e4926e7311948b723292a80f6b0aa228047bf0ef59c361707c3e91e0e33a29060200161142c565b611738611848565b611740610e1c565b611776576040517fc7d4071900000000000000000000000000000000000000000000000000000000815260040160405180910390fd5b6009541561178357600080fd5b6001600955565b60606000611797836121c3565b600101905060008167ffffffffffffffff8111156117b7576117b7612ba8565b6040519080825280601f01601f1916602001820160405280156117e1576020820181803683370190505b5090508181016020015b7fffffffffffffffffffffffffffffffffffffffffffffffffffffffffffffffff017f3031323334353637383961626364656600000000000000000000000000000000600a86061a8153600a85049450846117eb57509392505050565b60055473ffffffffffffffffffffffffffffffffffffffff163314611015576040517f08c379a000000000000000000000000000000000000000000000000000000000815260206004820181905260248201527f4f776e61626c653a2063616c6c6572206973206e6f7420746865206f776e657260448201526064016107d4565b815183511461195a576040517f08c379a000000000000000000000000000000000000000000000000000000000815260206004820152602860248201527f455243313135353a2069647320616e6420616d6f756e7473206c656e6774682060448201527f6d69736d6174636800000000000000000000000000000000000000000000000060648201526084016107d4565b73ffffffffffffffffffffffffffffffffffffffff84166119fd576040517f08c379a000000000000000000000000000000000000000000000000000000000815260206004820152602560248201527f455243313135353a207472616e7366657220746f20746865207a65726f20616460448201527f647265737300000000000000000000000000000000000000000000000000000060648201526084016107d4565b33611a0c8187878787876122a5565b60005b8451811015611b7c576000858281518110611a2c57611a2c613232565b602002602001015190506000858381518110611a4a57611a4a613232565b6020908102919091018101516000848152808352604080822073ffffffffffffffffffffffffffffffffffffffff8e168352909352919091205490915081811015611b17576040517f08c379a000000000000000000000000000000000000000000000000000000000815260206004820152602a60248201527f455243313135353a20696e73756666696369656e742062616c616e636520666f60448201527f72207472616e736665720000000000000000000000000000000000000000000060648201526084016107d4565b60008381526020818152604080832073ffffffffffffffffffffffffffffffffffffffff8e8116855292528083208585039055908b16825281208054849290611b619084906131e7565b9250508190555050505080611b75906131fa565b9050611a0f565b508473ffffffffffffffffffffffffffffffffffffffff168673ffffffffffffffffffffffffffffffffffffffff168273ffffffffffffffffffffffffffffffffffffffff167f4a39dc06d4c0dbc64b70af90fd698a233a518aa5d07e595d983b8c0526c8f7fb8787604051611bf3929190613507565b60405180910390a4611c09818787878787612470565b505050505050565b6005805473ffffffffffffffffffffffffffffffffffffffff8381167fffffffffffffffffffffffff0000000000000000000000000000000000000000831681179093556040519116919082907f8be0079c531659141344cd1fd0a4f28419497f9722a3daafe3b4186f6b6457e090600090a35050565b600081604051602001611c9b9190613535565b6040516020818303038152906040528051906020012083604051602001611cc29190613535565b6040516020818303038152906040528051906020012014905092915050565b8173ffffffffffffffffffffffffffffffffffffffff168373ffffffffffffffffffffffffffffffffffffffff1603611d9c576040517f08c379a000000000000000000000000000000000000000000000000000000000815260206004820152602960248201527f455243313135353a2073657474696e6720617070726f76616c2073746174757360448201527f20666f722073656c66000000000000000000000000000000000000000000000060648201526084016107d4565b73ffffffffffffffffffffffffffffffffffffffff83811660008181526001602090815260408083209487168084529482529182902080547fffffffffffffffffffffffffffffffffffffffffffffffffffffffffffffff001686151590811790915591519182527f17307eab39ab6107e8899845ad3d59bd9653f200f220920489ca2b5937696c31910160405180910390a3505050565b600260045403611ea0576040517f08c379a000000000000000000000000000000000000000000000000000000000815260206004820152601f60248201527f5265656e7472616e637947756172643a207265656e7472616e742063616c6c0060448201526064016107d4565b6002600455565b6040805160a08101825260008183018181526060830182815260808401838152878552426020808701918252888652600d8152878620875181559151600183015593516002820180549115157fffffffffffffffffffffffffffffffffffffffffffffffffffffffffffffff00928316179055925160038201559051600490910180549115159190921617905583518082018552828152858352600e9091529290209091611f5590826133ed565b50611f7233836001604051806020016040528060008152506126fa565b505050565b73ffffffffffffffffffffffffffffffffffffffff841661201a576040517f08c379a000000000000000000000000000000000000000000000000000000000815260206004820152602560248201527f455243313135353a207472616e7366657220746f20746865207a65726f20616460448201527f647265737300000000000000000000000000000000000000000000000000000060648201526084016107d4565b33600061202685612871565b9050600061203385612871565b90506120438389898585896122a5565b60008681526020818152604080832073ffffffffffffffffffffffffffffffffffffffff8c16845290915290205485811015612101576040517f08c379a000000000000000000000000000000000000000000000000000000000815260206004820152602a60248201527f455243313135353a20696e73756666696369656e742062616c616e636520666f60448201527f72207472616e736665720000000000000000000000000000000000000000000060648201526084016107d4565b60008781526020818152604080832073ffffffffffffffffffffffffffffffffffffffff8d8116855292528083208985039055908a1682528120805488929061214b9084906131e7565b9091555050604080518881526020810188905273ffffffffffffffffffffffffffffffffffffffff808b16928c821692918816917fc3d58168c5ae7397731d063d5bbf3d657854427343f4c083240f7aacaa2d0f62910160405180910390a46121b8848a8a8a8a8a6128bc565b505050505050505050565b6000807a184f03e93ff9f4daa797ed6e38ed64bf6a1f010000000000000000831061220c577a184f03e93ff9f4daa797ed6e38ed64bf6a1f010000000000000000830492506040015b6d04ee2d6d415b85acef81000000008310612238576d04ee2d6d415b85acef8100000000830492506020015b662386f26fc10000831061225657662386f26fc10000830492506010015b6305f5e100831061226e576305f5e100830492506008015b612710831061228257612710830492506004015b60648310612294576064830492506002015b600a831061080d5760010192915050565b73ffffffffffffffffffffffffffffffffffffffff85166123395760005b8351811015612337578281815181106122de576122de613232565b6020026020010151600360008684815181106122fc576122fc613232565b60200260200101518152602001908152602001600020600082825461232191906131e7565b909155506123309050816131fa565b90506122c3565b505b73ffffffffffffffffffffffffffffffffffffffff8416611c095760005b835181101561246757600084828151811061237457612374613232565b60200260200101519050600084838151811061239257612392613232565b6020026020010151905060006003600084815260200190815260200160002054905081811015612444576040517f08c379a000000000000000000000000000000000000000000000000000000000815260206004820152602860248201527f455243313135353a206275726e20616d6f756e74206578636565647320746f7460448201527f616c537570706c7900000000000000000000000000000000000000000000000060648201526084016107d4565b60009283526003602052604090922091039055612460816131fa565b9050612357565b50505050505050565b73ffffffffffffffffffffffffffffffffffffffff84163b15611c09576040517fbc197c8100000000000000000000000000000000000000000000000000000000815273ffffffffffffffffffffffffffffffffffffffff85169063bc197c81906124e79089908990889088908890600401613551565b6020604051808303816000875af1925050508015612540575060408051601f3d9081017fffffffffffffffffffffffffffffffffffffffffffffffffffffffffffffffe016820190925261253d918101906135bc565b60015b6126295761254c6135d9565b806308c379a00361259f57506125606135f5565b8061256b57506125a1565b806040517f08c379a00000000000000000000000000000000000000000000000000000000081526004016107d49190612b7c565b505b6040517f08c379a000000000000000000000000000000000000000000000000000000000815260206004820152603460248201527f455243313135353a207472616e7366657220746f206e6f6e2d4552433131353560448201527f526563656976657220696d706c656d656e74657200000000000000000000000060648201526084016107d4565b7fffffffff0000000000000000000000000000000000000000000000000000000081167fbc197c810000000000000000000000000000000000000000000000000000000014612467576040517f08c379a000000000000000000000000000000000000000000000000000000000815260206004820152602860248201527f455243313135353a204552433131353552656365697665722072656a6563746560448201527f6420746f6b656e7300000000000000000000000000000000000000000000000060648201526084016107d4565b73ffffffffffffffffffffffffffffffffffffffff841661279d576040517f08c379a000000000000000000000000000000000000000000000000000000000815260206004820152602160248201527f455243313135353a206d696e7420746f20746865207a65726f2061646472657360448201527f730000000000000000000000000000000000000000000000000000000000000060648201526084016107d4565b3360006127a985612871565b905060006127b685612871565b90506127c7836000898585896122a5565b60008681526020818152604080832073ffffffffffffffffffffffffffffffffffffffff8b168452909152812080548792906128049084906131e7565b9091555050604080518781526020810187905273ffffffffffffffffffffffffffffffffffffffff808a1692600092918716917fc3d58168c5ae7397731d063d5bbf3d657854427343f4c083240f7aacaa2d0f62910160405180910390a4612467836000898989896128bc565b604080516001808252818301909252606091600091906020808301908036833701905050905082816000815181106128ab576128ab613232565b602090810291909101015292915050565b73ffffffffffffffffffffffffffffffffffffffff84163b15611c09576040517ff23a6e6100000000000000000000000000000000000000000000000000000000815273ffffffffffffffffffffffffffffffffffffffff85169063f23a6e6190612933908990899088908890889060040161369d565b6020604051808303816000875af192505050801561298c575060408051601f3d9081017fffffffffffffffffffffffffffffffffffffffffffffffffffffffffffffffe0168201909252612989918101906135bc565b60015b6129985761254c6135d9565b7fffffffff0000000000000000000000000000000000000000000000000000000081167ff23a6e610000000000000000000000000000000000000000000000000000000014612467576040517f08c379a000000000000000000000000000000000000000000000000000000000815260206004820152602860248201527f455243313135353a204552433131353552656365697665722072656a6563746560448201527f6420746f6b656e7300000000000000000000000000000000000000000000000060648201526084016107d4565b803573ffffffffffffffffffffffffffffffffffffffff81168114612a8d57600080fd5b919050565b60008060408385031215612aa557600080fd5b612aae83612a69565b946020939093013593505050565b7fffffffff000000000000000000000000000000000000000000000000000000008116811461169257600080fd5b600060208284031215612afc57600080fd5b8135612b0781612abc565b9392505050565b60005b83811015612b29578181015183820152602001612b11565b50506000910152565b60008151808452612b4a816020860160208601612b0e565b601f017fffffffffffffffffffffffffffffffffffffffffffffffffffffffffffffffe0169290920160200192915050565b602081526000612b076020830184612b32565b600060208284031215612ba157600080fd5b5035919050565b7f4e487b7100000000000000000000000000000000000000000000000000000000600052604160045260246000fd5b7fffffffffffffffffffffffffffffffffffffffffffffffffffffffffffffffe0601f830116810181811067ffffffffffffffff82111715612c1b57612c1b612ba8565b6040525050565b600067ffffffffffffffff821115612c3c57612c3c612ba8565b5060051b60200190565b600082601f830112612c5757600080fd5b81356020612c6482612c22565b604051612c718282612bd7565b83815260059390931b8501820192828101915086841115612c9157600080fd5b8286015b84811015612cac5780358352918301918301612c95565b509695505050505050565b600082601f830112612cc857600080fd5b813567ffffffffffffffff811115612ce257612ce2612ba8565b604051612d1760207fffffffffffffffffffffffffffffffffffffffffffffffffffffffffffffffe0601f8501160182612bd7565b818152846020838601011115612d2c57600080fd5b816020850160208301376000918101602001919091529392505050565b600080600080600060a08688031215612d6157600080fd5b612d6a86612a69565b9450612d7860208701612a69565b9350604086013567ffffffffffffffff80821115612d9557600080fd5b612da189838a01612c46565b94506060880135915080821115612db757600080fd5b612dc389838a01612c46565b93506080880135915080821115612dd957600080fd5b50612de688828901612cb7565b9150509295509295909350565b60008060408385031215612e0657600080fd5b823567ffffffffffffffff80821115612e1e57600080fd5b818501915085601f830112612e3257600080fd5b81356020612e3f82612c22565b604051612e4c8282612bd7565b83815260059390931b8501820192828101915089841115612e6c57600080fd5b948201945b83861015612e9157612e8286612a69565b82529482019490820190612e71565b96505086013592505080821115612ea757600080fd5b50612eb485828601612c46565b9150509250929050565b600081518084526020808501945080840160005b83811015612eee57815187529582019590820190600101612ed2565b509495945050505050565b602081526000612b076020830184612ebe565b60008060408385031215612f1f57600080fd5b82359150602083013567ffffffffffffffff811115612f3d57600080fd5b612eb485828601612cb7565b60008060408385031215612f5c57600080fd5b612f6583612a69565b915060208301358015158114612f7a57600080fd5b809150509250929050565b82518152602083015160208201526040830151151560408201526060830151606082015260808301511515608082015260c060a08201526000612fcb60c0830184612b32565b949350505050565b60008060408385031215612fe657600080fd5b612fef83612a69565b9150612ffd60208401612a69565b90509250929050565b600080600080600060a0868803121561301e57600080fd5b61302786612a69565b945061303560208701612a69565b93506040860135925060608601359150608086013567ffffffffffffffff81111561305f57600080fd5b612de688828901612cb7565b60006020828403121561307d57600080fd5b612b0782612a69565b60006020828403121561309857600080fd5b5051919050565b7f4e487b7100000000000000000000000000000000000000000000000000000000600052601160045260246000fd5b600082613104577f4e487b7100000000000000000000000000000000000000000000000000000000600052601260045260246000fd5b500490565b7f68747470733a2f2f697066732e626c6f636b73636170652e6e6574776f726b2f81527f69706e732f6b3531717a6935757175356469766b66613276787532693731796860208201527f6a336b36726d36626776676e64347130306834663830636234696d736739757960408201527f32396c2f000000000000000000000000000000000000000000000000000000006060820152600082516131b3816064850160208701612b0e565b7f2e6a736f6e0000000000000000000000000000000000000000000000000000006064939091019283015250606901919050565b8082018082111561080d5761080d61309f565b60007fffffffffffffffffffffffffffffffffffffffffffffffffffffffffffffffff820361322b5761322b61309f565b5060010190565b7f4e487b7100000000000000000000000000000000000000000000000000000000600052603260045260246000fd5b8181038181111561080d5761080d61309f565b6000817fffffffffffffffffffffffffffffffffffffffffffffffffffffffffffffffff04831182151516156132ac576132ac61309f565b500290565b600181811c908216806132c557607f821691505b602082108103610b93577f4e487b7100000000000000000000000000000000000000000000000000000000600052602260045260246000fd5b6000602080835260008454613312816132b1565b80848701526040600180841660008114613333576001811461336b57613399565b7fffffffffffffffffffffffffffffffffffffffffffffffffffffffffffffff008516838a01528284151560051b8a01019550613399565b896000528660002060005b858110156133915781548b8201860152908301908801613376565b8a0184019650505b509398975050505050505050565b601f821115611f7257600081815260208120601f850160051c810160208610156133ce5750805b601f850160051c820191505b81811015611c09578281556001016133da565b815167ffffffffffffffff81111561340757613407612ba8565b61341b8161341584546132b1565b846133a7565b602080601f83116001811461346e57600084156134385750858301515b7fffffffffffffffffffffffffffffffffffffffffffffffffffffffffffffffff600386901b1c1916600185901b178555611c09565b6000858152602081207fffffffffffffffffffffffffffffffffffffffffffffffffffffffffffffffe08616915b828110156134bb5788860151825594840194600190910190840161349c565b50858210156134f757878501517fffffffffffffffffffffffffffffffffffffffffffffffffffffffffffffffff600388901b60f8161c191681555b5050505050600190811b01905550565b60408152600061351a6040830185612ebe565b828103602084015261352c8185612ebe565b95945050505050565b60008251613547818460208701612b0e565b9190910192915050565b600073ffffffffffffffffffffffffffffffffffffffff808816835280871660208401525060a0604083015261358a60a0830186612ebe565b828103606084015261359c8186612ebe565b905082810360808401526135b08185612b32565b98975050505050505050565b6000602082840312156135ce57600080fd5b8151612b0781612abc565b600060033d11156135f25760046000803e5060005160e01c5b90565b600060443d10156136035790565b6040517ffffffffffffffffffffffffffffffffffffffffffffffffffffffffffffffffc803d016004833e81513d67ffffffffffffffff816024840111818411171561365157505050505090565b82850191508151818111156136695750505050505090565b843d87010160208285010111156136835750505050505090565b61369260208286010187612bd7565b509095945050505050565b600073ffffffffffffffffffffffffffffffffffffffff808816835280871660208401525084604083015283606083015260a060808301526136e260a0830184612b32565b97965050505050505056fe68747470733a2f2f697066732e626c6f636b73636170652e6e6574776f726b2f697066732f516d5052446a5367336964785445384254533337756d446d545a324c5a62337833344c5642514d79616a396e5679a26469706673582212206712978f2f1ddd70a6164de7269baa2729ef58513a167fa384389a9137249e3c64736f6c6343000810003368747470733a2f2f697066732e626c6f636b73636170652e6e6574776f726b2f69706e732f6b3531717a6935757175356469766b6661327678753269373179686a336b36726d36626776676e64347130306834663830636234696d736739757932396c2f7b69647d2e6a736f6e",
    "linkReferences": {}
  },
  "methodIdentifiers": {
    "balanceOf(address,uint256)": "00fdd58e",
    "balanceOfBatch(address[],uint256[])": "4e1273f4",
    "changeETHLimit(uint256)": "b1251026",
    "closeSoloVault()": "63b613f2",
    "contractURI()": "e8a3d485",
    "depositSoloVault()": "ccae8a8d",
    "exists(uint256)": "4f558e79",
    "getAvailableRPLStake()": "9fe8d3aa",
    "getBalance()": "12065fe0",
    "getCurrentEthLimit()": "354228be",
    "getMetadata(uint256)": "a574cea4",
    "getReqRPLStake()": "02943854",
    "getTokenID()": "6ba367a3",
    "hasNodeEnoughRPLStake()": "66f9fa3a",
    "isApprovedForAll(address,address)": "e985e9c5",
    "isVaultOpen()": "ec36d35e",
    "name()": "06fdde03",
    "openSoloVault()": "f9d7afd7",
    "owner()": "8da5cb5b",
    "renounceOwnership()": "715018a6",
    "safeBatchTransferFrom(address,address,uint256[],uint256[],bytes)": "2eb2c2d6",
    "safeTransferFrom(address,address,uint256,uint256,bytes)": "f242432a",
    "setApprovalForAll(address,bool)": "a22cb465",
    "setBlockscapeRocketPoolNode(address)": "f6b76685",
    "setWithdrawFee(uint256)": "b6ac642a",
    "supportsInterface(bytes4)": "01ffc9a7",
    "symbol()": "95d89b41",
    "totalSupply()": "18160ddd",
    "totalSupply(uint256)": "bd85b039",
    "transferOwnership(address)": "f2fde38b",
    "updateValidator(uint256,bytes)": "8d8b7ca9",
    "uri(uint256)": "0e89341c",
    "userRequestWithdraw(uint256)": "6ea5ba1a",
    "viewUserRequestWithdraw(uint256)": "8776d1d7",
    "withdraw(uint256)": "2e1a7d4d",
    "withdrawBatch()": "f6b21af2"
  },
  "id": 31
}