{
  "abi": [
    {
      "inputs": [],
      "stateMutability": "nonpayable",
      "type": "constructor"
    },
    {
      "inputs": [],
      "name": "NotEnoughRPLStake",
      "type": "error"
    },
    {
      "inputs": [
        {
          "internalType": "bytes",
          "name": "_vali",
          "type": "bytes"
        }
      ],
      "name": "ValidatorAlreadySet",
      "type": "error"
    },
    {
      "anonymous": false,
      "inputs": [
        {
          "indexed": true,
          "internalType": "address",
          "name": "account",
          "type": "address"
        },
        {
          "indexed": true,
          "internalType": "address",
          "name": "operator",
          "type": "address"
        },
        {
          "indexed": false,
          "internalType": "bool",
          "name": "approved",
          "type": "bool"
        }
      ],
      "name": "ApprovalForAll",
      "type": "event"
    },
    {
      "anonymous": false,
      "inputs": [
        {
          "indexed": false,
          "internalType": "uint256",
          "name": "_newLimit",
          "type": "uint256"
        }
      ],
      "name": "ETHLimitChanged",
      "type": "event"
    },
    {
      "anonymous": false,
      "inputs": [
        {
          "indexed": true,
          "internalType": "address",
          "name": "previousOwner",
          "type": "address"
        },
        {
          "indexed": true,
          "internalType": "address",
          "name": "newOwner",
          "type": "address"
        }
      ],
      "name": "OwnershipTransferred",
      "type": "event"
    },
    {
      "anonymous": false,
      "inputs": [
        {
          "indexed": false,
          "internalType": "uint256",
          "name": "_availRPL",
          "type": "uint256"
        },
        {
          "indexed": false,
          "internalType": "uint256",
          "name": "_requiredRPL",
          "type": "uint256"
        }
      ],
      "name": "RPLStakeRequired",
      "type": "event"
    },
    {
      "anonymous": false,
      "inputs": [
        {
          "indexed": false,
          "internalType": "address",
          "name": "_newAddress",
          "type": "address"
        }
      ],
      "name": "RocketPoolNodeAddressChanged",
      "type": "event"
    },
    {
      "anonymous": false,
      "inputs": [
        {
          "indexed": true,
          "internalType": "address",
          "name": "operator",
          "type": "address"
        },
        {
          "indexed": true,
          "internalType": "address",
          "name": "from",
          "type": "address"
        },
        {
          "indexed": true,
          "internalType": "address",
          "name": "to",
          "type": "address"
        },
        {
          "indexed": false,
          "internalType": "uint256[]",
          "name": "ids",
          "type": "uint256[]"
        },
        {
          "indexed": false,
          "internalType": "uint256[]",
          "name": "values",
          "type": "uint256[]"
        }
      ],
      "name": "TransferBatch",
      "type": "event"
    },
    {
      "anonymous": false,
      "inputs": [
        {
          "indexed": true,
          "internalType": "address",
          "name": "operator",
          "type": "address"
        },
        {
          "indexed": true,
          "internalType": "address",
          "name": "from",
          "type": "address"
        },
        {
          "indexed": true,
          "internalType": "address",
          "name": "to",
          "type": "address"
        },
        {
          "indexed": false,
          "internalType": "uint256",
          "name": "id",
          "type": "uint256"
        },
        {
          "indexed": false,
          "internalType": "uint256",
          "name": "value",
          "type": "uint256"
        }
      ],
      "name": "TransferSingle",
      "type": "event"
    },
    {
      "anonymous": false,
      "inputs": [
        {
          "indexed": false,
          "internalType": "string",
          "name": "value",
          "type": "string"
        },
        {
          "indexed": true,
          "internalType": "uint256",
          "name": "id",
          "type": "uint256"
        }
      ],
      "name": "URI",
      "type": "event"
    },
    {
      "anonymous": false,
      "inputs": [
        {
          "indexed": false,
          "internalType": "uint256",
          "name": "_tokenID",
          "type": "uint256"
        },
        {
          "indexed": false,
          "internalType": "address",
          "name": "_user",
          "type": "address"
        },
        {
          "indexed": false,
          "internalType": "uint256",
          "name": "_fee",
          "type": "uint256"
        },
        {
          "indexed": false,
          "internalType": "uint256",
          "name": "_stakedETH",
          "type": "uint256"
        }
      ],
      "name": "UserRequestedWithdrawal",
      "type": "event"
    },
    {
      "anonymous": false,
      "inputs": [
        {
          "indexed": false,
          "internalType": "bytes",
          "name": "_vali",
          "type": "bytes"
        }
      ],
      "name": "ValidatorSet",
      "type": "event"
    },
    {
      "inputs": [
        {
          "internalType": "address",
          "name": "account",
          "type": "address"
        },
        {
          "internalType": "uint256",
          "name": "id",
          "type": "uint256"
        }
      ],
      "name": "balanceOf",
      "outputs": [
        {
          "internalType": "uint256",
          "name": "",
          "type": "uint256"
        }
      ],
      "stateMutability": "view",
      "type": "function"
    },
    {
      "inputs": [
        {
          "internalType": "address[]",
          "name": "accounts",
          "type": "address[]"
        },
        {
          "internalType": "uint256[]",
          "name": "ids",
          "type": "uint256[]"
        }
      ],
      "name": "balanceOfBatch",
      "outputs": [
        {
          "internalType": "uint256[]",
          "name": "",
          "type": "uint256[]"
        }
      ],
      "stateMutability": "view",
      "type": "function"
    },
    {
      "inputs": [
        {
          "internalType": "uint256",
          "name": "_newLimit",
          "type": "uint256"
        }
      ],
      "name": "changeETHLimit",
      "outputs": [],
      "stateMutability": "nonpayable",
      "type": "function"
    },
    {
      "inputs": [],
      "name": "closeSoloVault",
      "outputs": [],
      "stateMutability": "nonpayable",
      "type": "function"
    },
    {
      "inputs": [],
      "name": "contractURI",
      "outputs": [
        {
          "internalType": "string",
          "name": "",
          "type": "string"
        }
      ],
      "stateMutability": "pure",
      "type": "function"
    },
    {
      "inputs": [
        {
          "internalType": "uint256",
          "name": "id",
          "type": "uint256"
        }
      ],
      "name": "exists",
      "outputs": [
        {
          "internalType": "bool",
          "name": "",
          "type": "bool"
        }
      ],
      "stateMutability": "view",
      "type": "function"
    },
    {
      "inputs": [],
      "name": "getAvailableRPLStake",
      "outputs": [
        {
          "internalType": "uint256",
          "name": "",
          "type": "uint256"
        }
      ],
      "stateMutability": "view",
      "type": "function"
    },
    {
      "inputs": [],
      "name": "getBalance",
      "outputs": [
        {
          "internalType": "uint256",
          "name": "",
          "type": "uint256"
        }
      ],
      "stateMutability": "view",
      "type": "function"
    },
    {
      "inputs": [],
      "name": "getCurrentEthLimit",
      "outputs": [
        {
          "internalType": "uint256",
          "name": "",
          "type": "uint256"
        }
      ],
      "stateMutability": "view",
      "type": "function"
    },
    {
      "inputs": [
        {
          "internalType": "uint256",
          "name": "_tokenID",
          "type": "uint256"
        }
      ],
      "name": "getMetadata",
      "outputs": [
        {
          "components": [
            {
              "internalType": "uint256",
              "name": "stakedETH",
              "type": "uint256"
            },
            {
              "internalType": "uint256",
              "name": "stakedTimestamp",
              "type": "uint256"
            },
            {
              "internalType": "bool",
              "name": "institution",
              "type": "bool"
            },
            {
              "internalType": "bytes32",
              "name": "institutionName",
              "type": "bytes32"
            },
            {
              "internalType": "bool",
              "name": "institutionVerified",
              "type": "bool"
            }
          ],
          "internalType": "struct BlockscapeSoloVaultGoerli.Metadata",
          "name": "",
          "type": "tuple"
        },
        {
          "internalType": "bytes",
          "name": "",
          "type": "bytes"
        }
      ],
      "stateMutability": "view",
      "type": "function"
    },
    {
      "inputs": [],
      "name": "getReqRPLStake",
      "outputs": [
        {
          "internalType": "uint256",
          "name": "",
          "type": "uint256"
        }
      ],
      "stateMutability": "view",
      "type": "function"
    },
    {
      "inputs": [],
      "name": "getTokenID",
      "outputs": [
        {
          "internalType": "uint256",
          "name": "",
          "type": "uint256"
        }
      ],
      "stateMutability": "view",
      "type": "function"
    },
    {
      "inputs": [],
      "name": "hasNodeEnoughRPLStake",
      "outputs": [
        {
          "internalType": "bool",
          "name": "",
          "type": "bool"
        }
      ],
      "stateMutability": "view",
      "type": "function"
    },
    {
      "inputs": [
        {
          "internalType": "address",
          "name": "account",
          "type": "address"
        },
        {
          "internalType": "address",
          "name": "operator",
          "type": "address"
        }
      ],
      "name": "isApprovedForAll",
      "outputs": [
        {
          "internalType": "bool",
          "name": "",
          "type": "bool"
        }
      ],
      "stateMutability": "view",
      "type": "function"
    },
    {
      "inputs": [],
      "name": "isVaultOpen",
      "outputs": [
        {
          "internalType": "bool",
          "name": "",
          "type": "bool"
        }
      ],
      "stateMutability": "view",
      "type": "function"
    },
    {
      "inputs": [],
      "name": "name",
      "outputs": [
        {
          "internalType": "string",
          "name": "",
          "type": "string"
        }
      ],
      "stateMutability": "view",
      "type": "function"
    },
    {
      "inputs": [],
      "name": "openSoloVault",
      "outputs": [],
      "stateMutability": "nonpayable",
      "type": "function"
    },
    {
      "inputs": [],
      "name": "owner",
      "outputs": [
        {
          "internalType": "address",
          "name": "",
          "type": "address"
        }
      ],
      "stateMutability": "view",
      "type": "function"
    },
    {
      "inputs": [],
      "name": "renounceOwnership",
      "outputs": [],
      "stateMutability": "nonpayable",
      "type": "function"
    },
    {
      "inputs": [
        {
          "internalType": "address",
          "name": "from",
          "type": "address"
        },
        {
          "internalType": "address",
          "name": "to",
          "type": "address"
        },
        {
          "internalType": "uint256[]",
          "name": "ids",
          "type": "uint256[]"
        },
        {
          "internalType": "uint256[]",
          "name": "amounts",
          "type": "uint256[]"
        },
        {
          "internalType": "bytes",
          "name": "data",
          "type": "bytes"
        }
      ],
      "name": "safeBatchTransferFrom",
      "outputs": [],
      "stateMutability": "nonpayable",
      "type": "function"
    },
    {
      "inputs": [
        {
          "internalType": "address",
          "name": "from",
          "type": "address"
        },
        {
          "internalType": "address",
          "name": "to",
          "type": "address"
        },
        {
          "internalType": "uint256",
          "name": "id",
          "type": "uint256"
        },
        {
          "internalType": "uint256",
          "name": "amount",
          "type": "uint256"
        },
        {
          "internalType": "bytes",
          "name": "data",
          "type": "bytes"
        }
      ],
      "name": "safeTransferFrom",
      "outputs": [],
      "stateMutability": "nonpayable",
      "type": "function"
    },
    {
      "inputs": [
        {
          "internalType": "address",
          "name": "operator",
          "type": "address"
        },
        {
          "internalType": "bool",
          "name": "approved",
          "type": "bool"
        }
      ],
      "name": "setApprovalForAll",
      "outputs": [],
      "stateMutability": "nonpayable",
      "type": "function"
    },
    {
      "inputs": [
        {
          "internalType": "address",
          "name": "_newBlockscapeRocketPoolNode",
          "type": "address"
        }
      ],
      "name": "setBlockscapeRocketPoolNode",
      "outputs": [],
      "stateMutability": "nonpayable",
      "type": "function"
    },
    {
      "inputs": [
        {
          "internalType": "uint256",
          "name": "_amount",
          "type": "uint256"
        }
      ],
      "name": "setWithdrawFee",
      "outputs": [],
      "stateMutability": "nonpayable",
      "type": "function"
    },
    {
      "inputs": [
        {
          "internalType": "bytes4",
          "name": "interfaceId",
          "type": "bytes4"
        }
      ],
      "name": "supportsInterface",
      "outputs": [
        {
          "internalType": "bool",
          "name": "",
          "type": "bool"
        }
      ],
      "stateMutability": "view",
      "type": "function"
    },
    {
      "inputs": [],
      "name": "symbol",
      "outputs": [
        {
          "internalType": "string",
          "name": "",
          "type": "string"
        }
      ],
      "stateMutability": "view",
      "type": "function"
    },
    {
      "inputs": [],
      "name": "totalSupply",
      "outputs": [
        {
          "internalType": "uint256",
          "name": "",
          "type": "uint256"
        }
      ],
      "stateMutability": "view",
      "type": "function"
    },
    {
      "inputs": [
        {
          "internalType": "uint256",
          "name": "id",
          "type": "uint256"
        }
      ],
      "name": "totalSupply",
      "outputs": [
        {
          "internalType": "uint256",
          "name": "",
          "type": "uint256"
        }
      ],
      "stateMutability": "view",
      "type": "function"
    },
    {
      "inputs": [
        {
          "internalType": "address",
          "name": "newOwner",
          "type": "address"
        }
      ],
      "name": "transferOwnership",
      "outputs": [],
      "stateMutability": "nonpayable",
      "type": "function"
    },
    {
      "inputs": [],
      "name": "tryDepositSoloVault",
      "outputs": [],
      "stateMutability": "payable",
      "type": "function"
    },
    {
      "inputs": [],
      "name": "tryWithdrawBatch",
      "outputs": [],
      "stateMutability": "nonpayable",
      "type": "function"
    },
    {
      "inputs": [
        {
          "internalType": "uint256",
          "name": "_tokenID",
          "type": "uint256"
        },
        {
          "internalType": "bytes",
          "name": "_vali",
          "type": "bytes"
        }
      ],
      "name": "updateValidator",
      "outputs": [],
      "stateMutability": "nonpayable",
      "type": "function"
    },
    {
      "inputs": [
        {
          "internalType": "uint256",
          "name": "_tokenID",
          "type": "uint256"
        }
      ],
      "name": "uri",
      "outputs": [
        {
          "internalType": "string",
          "name": "",
          "type": "string"
        }
      ],
      "stateMutability": "pure",
      "type": "function"
    },
    {
      "inputs": [
        {
          "internalType": "uint256",
          "name": "_tokenID",
          "type": "uint256"
        }
      ],
      "name": "userRequestWithdraw",
      "outputs": [
        {
          "internalType": "uint256",
          "name": "_amount",
          "type": "uint256"
        }
      ],
      "stateMutability": "nonpayable",
      "type": "function"
    },
    {
      "inputs": [
        {
          "internalType": "uint256",
          "name": "_tokenID",
          "type": "uint256"
        }
      ],
      "name": "viewUserRequestWithdraw",
      "outputs": [
        {
          "internalType": "uint256",
          "name": "_amount",
          "type": "uint256"
        }
      ],
      "stateMutability": "view",
      "type": "function"
    },
    {
      "inputs": [
        {
          "internalType": "uint256",
          "name": "_amount",
          "type": "uint256"
        }
      ],
      "name": "withdraw",
      "outputs": [],
      "stateMutability": "nonpayable",
      "type": "function"
    }
  ],
  "bytecode": {
    "object": "0x600680546001600160a01b03191673f0d22db91de516b44e5c976f71e394c9ac97e6451790556801158e460913d0000060075567de0b6b3a764000006008556009805460ff19169055610190600a556f636f6e74726163742e6164647265737360801b60a090815270726f636b65744e6f64655374616b696e6760781b60b0526021608081905260c1604081905291206321f8a72160e01b90915260c55273d8cd47263414afeca62d6e2a3917d6600abdceb36321f8a72160e5602060405180830381865afa158015620000d7573d6000803e3d6000fd5b505050506040513d601f19601f82011682018060405250810190620000fd9190620001d6565b600b80546001600160a01b03929092166001600160a01b03199283168117909155600c80549092161790553480156200013557600080fd5b506040518060a00160405280606d815260200162003b23606d91396200015b8162000172565b5060016004556200016c3362000184565b62000379565b6002620001808282620002ad565b5050565b600580546001600160a01b038381166001600160a01b0319831681179093556040519116919082907f8be0079c531659141344cd1fd0a4f28419497f9722a3daafe3b4186f6b6457e090600090a35050565b600060208284031215620001e957600080fd5b81516001600160a01b03811681146200020157600080fd5b9392505050565b634e487b7160e01b600052604160045260246000fd5b600181811c908216806200023357607f821691505b6020821081036200025457634e487b7160e01b600052602260045260246000fd5b50919050565b601f821115620002a857600081815260208120601f850160051c81016020861015620002835750805b601f850160051c820191505b81811015620002a4578281556001016200028f565b5050505b505050565b81516001600160401b03811115620002c957620002c962000208565b620002e181620002da84546200021e565b846200025a565b602080601f831160018114620003195760008415620003005750858301515b600019600386901b1c1916600185901b178555620002a4565b600085815260208120601f198616915b828110156200034a5788860151825594840194600190910190840162000329565b5085821015620003695787850151600019600388901b60f8161c191681555b5050505050600190811b01905550565b61379a80620003896000396000f3fe60806040526004361061024e5760003560e01c80638776d1d711610138578063bd85b039116100b0578063f242432a1161007f578063f649b01411610064578063f649b014146106e9578063f6b76685146106fe578063f9d7afd71461071e57600080fd5b8063f242432a146106a9578063f2fde38b146106c957600080fd5b8063bd85b039146105f9578063e8a3d48514610626578063e985e9c51461063b578063ec36d35e1461069157600080fd5b80639fe8d3aa11610107578063a574cea4116100ec578063a574cea41461058b578063b1251026146105b9578063b6ac642a146105d957600080fd5b80639fe8d3aa14610556578063a22cb4651461056b57600080fd5b80638776d1d7146104985780638d8b7ca9146104b85780638da5cb5b146104d857806395d89b411461050d57600080fd5b8063354228be116101cb57806366f9fa3a1161019a5780636ea5ba1a1161017f5780636ea5ba1a1461045b57806370a383e01461047b578063715018a61461048357600080fd5b806366f9fa3a146104315780636ba367a31461044657600080fd5b8063354228be146103ab5780634e1273f4146103c05780634f558e79146103ed57806363b613f21461041c57600080fd5b80630e89341c1161022257806318160ddd1161020757806318160ddd146103545780632e1a7d4d146103695780632eb2c2d61461038b57600080fd5b80630e89341c1461032157806312065fe01461034157600080fd5b8062fdd58e1461025357806301ffc9a71461028657806302943854146102b657806306fdde03146102cb575b600080fd5b34801561025f57600080fd5b5061027361026e366004612ab1565b610733565b6040519081526020015b60405180910390f35b34801561029257600080fd5b506102a66102a1366004612b09565b610813565b604051901515815260200161027d565b3480156102c257600080fd5b506102736108f6565b3480156102d757600080fd5b506103146040518060400160405280601a81526020017f426c6f636b736361706520536f6c6f205661756c74204e46547300000000000081525081565b60405161027d9190612b9b565b34801561032d57600080fd5b5061031461033c366004612bae565b610a50565b34801561034d57600080fd5b5047610273565b34801561036057600080fd5b50610273610a81565b34801561037557600080fd5b50610389610384366004612bae565b610b99565b005b34801561039757600080fd5b506103896103a6366004612d68565b610bec565b3480156103b757600080fd5b50600854610273565b3480156103cc57600080fd5b506103e06103db366004612e12565b610cb5565b60405161027d9190612f18565b3480156103f957600080fd5b506102a6610408366004612bae565b600090815260036020526040902054151590565b34801561042857600080fd5b50610389610e0d565b34801561043d57600080fd5b506102a6610e1c565b34801561045257600080fd5b50600a54610273565b34801561046757600080fd5b50610273610476366004612bae565b610f87565b610389611003565b34801561048f57600080fd5b5061038961110a565b3480156104a457600080fd5b506102736104b3366004612bae565b61111c565b3480156104c457600080fd5b506103896104d3366004612f2b565b6111a6565b3480156104e457600080fd5b5060055460405173ffffffffffffffffffffffffffffffffffffffff909116815260200161027d565b34801561051957600080fd5b506103146040518060400160405280600381526020017f425356000000000000000000000000000000000000000000000000000000000081525081565b34801561056257600080fd5b5061027361132e565b34801561057757600080fd5b50610389610586366004612f68565b6113c8565b34801561059757600080fd5b506105ab6105a6366004612bae565b6113d3565b60405161027d929190612fa4565b3480156105c557600080fd5b506103896105d4366004612bae565b6114f6565b3480156105e557600080fd5b506103896105f4366004612bae565b61153a565b34801561060557600080fd5b50610273610614366004612bae565b60009081526003602052604090205490565b34801561063257600080fd5b50610314611547565b34801561064757600080fd5b506102a6610656366004612ff2565b73ffffffffffffffffffffffffffffffffffffffff918216600090815260016020908152604080832093909416825291909152205460ff1690565b34801561069d57600080fd5b5060095460ff166102a6565b3480156106b557600080fd5b506103896106c4366004613025565b611567565b3480156106d557600080fd5b506103896106e436600461308a565b611629565b3480156106f557600080fd5b506103896116e0565b34801561070a57600080fd5b5061038961071936600461308a565b6116f5565b34801561072a57600080fd5b50610389611770565b600073ffffffffffffffffffffffffffffffffffffffff83166107dd576040517f08c379a000000000000000000000000000000000000000000000000000000000815260206004820152602a60248201527f455243313135353a2061646472657373207a65726f206973206e6f742061207660448201527f616c6964206f776e65720000000000000000000000000000000000000000000060648201526084015b60405180910390fd5b5060008181526020818152604080832073ffffffffffffffffffffffffffffffffffffffff861684529091529020545b92915050565b60007fffffffff0000000000000000000000000000000000000000000000000000000082167fd9b67a260000000000000000000000000000000000000000000000000000000014806108a657507fffffffff0000000000000000000000000000000000000000000000000000000082167f0e89341c00000000000000000000000000000000000000000000000000000000145b8061080d57507f01ffc9a7000000000000000000000000000000000000000000000000000000007fffffffff0000000000000000000000000000000000000000000000000000000083161461080d565b600c546006546040517f90f7ff4c00000000000000000000000000000000000000000000000000000000815273ffffffffffffffffffffffffffffffffffffffff9182166004820152600092839216906390f7ff4c90602401602060405180830381865afa15801561096c573d6000803e3d6000fd5b505050506040513d601f19601f8201168201806040525081019061099091906130a5565b9050806000036109a257600091505090565b600c546006546040517f03fa87b400000000000000000000000000000000000000000000000000000000815273ffffffffffffffffffffffffffffffffffffffff918216600482015260009291909116906303fa87b490602401602060405180830381865afa158015610a19573d6000803e3d6000fd5b505050506040513d601f19601f82011682018060405250810190610a3d91906130a5565b9050610a4982826130ed565b9250505090565b6060610a5b8261178c565b604051602001610a6b9190613128565b6040516020818303038152906040529050919050565b60008060015b3073ffffffffffffffffffffffffffffffffffffffff16636ba367a36040518163ffffffff1660e01b8152600401602060405180830381865afa158015610ad2573d6000803e3d6000fd5b505050506040513d601f19601f82011682018060405250810190610af691906130a5565b8111610b93576040517fbd85b03900000000000000000000000000000000000000000000000000000000815260048101829052309063bd85b03990602401602060405180830381865afa158015610b51573d6000803e3d6000fd5b505050506040513d601f19601f82011682018060405250810190610b7591906130a5565b610b7f9083613206565b915080610b8b81613219565b915050610a87565b50919050565b610ba161184a565b60055460405173ffffffffffffffffffffffffffffffffffffffff9091169082156108fc029083906000818181858888f19350505050158015610be8573d6000803e3d6000fd5b5050565b73ffffffffffffffffffffffffffffffffffffffff8516331480610c155750610c158533610656565b610ca1576040517f08c379a000000000000000000000000000000000000000000000000000000000815260206004820152602e60248201527f455243313135353a2063616c6c6572206973206e6f7420746f6b656e206f776e60448201527f6572206f7220617070726f76656400000000000000000000000000000000000060648201526084016107d4565b610cae85858585856118cb565b5050505050565b60608151835114610d48576040517f08c379a000000000000000000000000000000000000000000000000000000000815260206004820152602960248201527f455243313135353a206163636f756e747320616e6420696473206c656e67746860448201527f206d69736d61746368000000000000000000000000000000000000000000000060648201526084016107d4565b6000835167ffffffffffffffff811115610d6457610d64612bc7565b604051908082528060200260200182016040528015610d8d578160200160208202803683370190505b50905060005b8451811015610e0557610dd8858281518110610db157610db1613251565b6020026020010151858381518110610dcb57610dcb613251565b6020026020010151610733565b828281518110610dea57610dea613251565b6020908102919091010152610dfe81613219565b9050610d93565b509392505050565b610e1561184a565b6000600955565b600c546006546040517f90f7ff4c00000000000000000000000000000000000000000000000000000000815273ffffffffffffffffffffffffffffffffffffffff9182166004820152600092839216906390f7ff4c90602401602060405180830381865afa158015610e92573d6000803e3d6000fd5b505050506040513d601f19601f82011682018060405250810190610eb691906130a5565b905080600003610ec857600091505090565b600c546006546040517f9961cee400000000000000000000000000000000000000000000000000000000815273ffffffffffffffffffffffffffffffffffffffff91821660048201526000929190911690639961cee490602401602060405180830381865afa158015610f3f573d6000803e3d6000fd5b505050506040513d601f19601f82011682018060405250810190610f6391906130a5565b90506000610f6f6108f6565b90506000610f7d8284613280565b1015935050505090565b600080610f938361111c565b90506001610fa13385610733565b1061080d576000838152600d60209081526040918290205482518681523392810192909252818301849052606082015290517f57e8bc4c74baca16ab16c5cc83fa0bc416b230ea2a49969e56a6fe1b5ea5a8639181900360800190a192915050565b61100b611c13565b60095460ff16611077576040517f08c379a000000000000000000000000000000000000000000000000000000000815260206004820152600f60248201527f5661756c7420697320636c6f736564000000000000000000000000000000000060448201526064016107d4565b34156110df576040517f08c379a000000000000000000000000000000000000000000000000000000000815260206004820152601060248201527f496e73756666696369656e74204554480000000000000000000000000000000060448201526064016107d4565b6110eb34600a54611c86565b600a805460010190556110fe6000600955565b6111086001600455565b565b61111261184a565b6111086000611d73565b600754600090600161112e3385610733565b1061080d5760006301e1338060075461114791906130ed565b6000858152600d6020526040812060010154919250906111679042613280565b90506301d52bd08110611184576706f05b59d3b20000925061119e565b61118e8183613293565b60075461119b9190613280565b92505b505092915050565b6111ae61184a565b61126260405180602001604052806000815250600e600085815260200190815260200160002080546111df906132d0565b80601f016020809104026020016040519081016040528092919081815260200182805461120b906132d0565b80156112585780601f1061122d57610100808354040283529160200191611258565b820191906000526020600020905b81548152906001019060200180831161123b57829003601f168201915b5050505050611dea565b6112a8576000828152600e60205260409081902090517f47b41d480000000000000000000000000000000000000000000000000000000081526107d4919060040161331d565b6000828152600e602052604090206112c08282613411565b506112c9610e1c565b156112d657610be8611770565b60006112e061132e565b905060006112ec6108f6565b60408051848152602081018390529192507f6cac971587f3485cf88026d10806eb012734ef89e176a8317db787673df0bc86910160405180910390a150505050565b600c546006546040517f9961cee400000000000000000000000000000000000000000000000000000000815273ffffffffffffffffffffffffffffffffffffffff918216600482015260009283921690639961cee490602401602060405180830381865afa1580156113a4573d6000803e3d6000fd5b505050506040513d601f19601f8201168201806040525081019061080d91906130a5565b610be8338383611e43565b6040805160a0810182526000808252602082018190529181018290526060810182905260808101919091526000828152600d60209081526040808320600e835292819020815160a08101835284548152600185015493810193909352600284015460ff9081161515928401929092526003840154606084810191909152600490940154909116151560808301528054819061146d906132d0565b80601f0160208091040260200160405190810160405280929190818152602001828054611499906132d0565b80156114e65780601f106114bb576101008083540402835291602001916114e6565b820191906000526020600020905b8154815290600101906020018083116114c957829003601f168201915b5050505050905091509150915091565b6114fe61184a565b60088190556040518181527ff5ef0716d925ac1ef70d8b610f013c7fd7cd03f9120fb486f0c4f18b4ef6f5c5906020015b60405180910390a150565b61154261184a565b600755565b606060405180608001604052806053815260200161371260539139905090565b73ffffffffffffffffffffffffffffffffffffffff851633148061159057506115908533610656565b61161c576040517f08c379a000000000000000000000000000000000000000000000000000000000815260206004820152602e60248201527f455243313135353a2063616c6c6572206973206e6f7420746f6b656e206f776e60448201527f6572206f7220617070726f76656400000000000000000000000000000000000060648201526084016107d4565b610cae8585858585611f96565b61163161184a565b73ffffffffffffffffffffffffffffffffffffffff81166116d4576040517f08c379a000000000000000000000000000000000000000000000000000000000815260206004820152602660248201527f4f776e61626c653a206e6577206f776e657220697320746865207a65726f206160448201527f646472657373000000000000000000000000000000000000000000000000000060648201526084016107d4565b6116dd81611d73565b50565b6116e861184a565b6009541561110857600080fd5b6116fd61184a565b600680547fffffffffffffffffffffffff00000000000000000000000000000000000000001673ffffffffffffffffffffffffffffffffffffffff83169081179091556040519081527f234e4926e7311948b723292a80f6b0aa228047bf0ef59c361707c3e91e0e33a29060200161152f565b61177861184a565b6009541561178557600080fd5b6001600955565b60606000611799836121e2565b600101905060008167ffffffffffffffff8111156117b9576117b9612bc7565b6040519080825280601f01601f1916602001820160405280156117e3576020820181803683370190505b5090508181016020015b7fffffffffffffffffffffffffffffffffffffffffffffffffffffffffffffffff017f3031323334353637383961626364656600000000000000000000000000000000600a86061a8153600a85049450846117ed57509392505050565b60055473ffffffffffffffffffffffffffffffffffffffff163314611108576040517f08c379a000000000000000000000000000000000000000000000000000000000815260206004820181905260248201527f4f776e61626c653a2063616c6c6572206973206e6f7420746865206f776e657260448201526064016107d4565b815183511461195c576040517f08c379a000000000000000000000000000000000000000000000000000000000815260206004820152602860248201527f455243313135353a2069647320616e6420616d6f756e7473206c656e6774682060448201527f6d69736d6174636800000000000000000000000000000000000000000000000060648201526084016107d4565b73ffffffffffffffffffffffffffffffffffffffff84166119ff576040517f08c379a000000000000000000000000000000000000000000000000000000000815260206004820152602560248201527f455243313135353a207472616e7366657220746f20746865207a65726f20616460448201527f647265737300000000000000000000000000000000000000000000000000000060648201526084016107d4565b33611a0e8187878787876122c4565b60005b8451811015611b7e576000858281518110611a2e57611a2e613251565b602002602001015190506000858381518110611a4c57611a4c613251565b6020908102919091018101516000848152808352604080822073ffffffffffffffffffffffffffffffffffffffff8e168352909352919091205490915081811015611b19576040517f08c379a000000000000000000000000000000000000000000000000000000000815260206004820152602a60248201527f455243313135353a20696e73756666696369656e742062616c616e636520666f60448201527f72207472616e736665720000000000000000000000000000000000000000000060648201526084016107d4565b60008381526020818152604080832073ffffffffffffffffffffffffffffffffffffffff8e8116855292528083208585039055908b16825281208054849290611b63908490613206565b9250508190555050505080611b7790613219565b9050611a11565b508473ffffffffffffffffffffffffffffffffffffffff168673ffffffffffffffffffffffffffffffffffffffff168273ffffffffffffffffffffffffffffffffffffffff167f4a39dc06d4c0dbc64b70af90fd698a233a518aa5d07e595d983b8c0526c8f7fb8787604051611bf592919061352b565b60405180910390a4611c0b81878787878761248f565b505050505050565b600260045403611c7f576040517f08c379a000000000000000000000000000000000000000000000000000000000815260206004820152601f60248201527f5265656e7472616e637947756172643a207265656e7472616e742063616c6c0060448201526064016107d4565b6002600455565b6040805160a08101825260006020808301829052828401829052606083018290526080830182905285835283518082018552828152858352600e9091529290209091611cd29082613411565b5042816020018181525050611cf93383600160405180602001604052806000815250612719565b6000918252600d602090815260409283902082518155908201516001820155918101516002830180549115157fffffffffffffffffffffffffffffffffffffffffffffffffffffffffffffff0092831617905560608201516003840155608090910151600490920180549215159290911691909117905550565b6005805473ffffffffffffffffffffffffffffffffffffffff8381167fffffffffffffffffffffffff0000000000000000000000000000000000000000831681179093556040519116919082907f8be0079c531659141344cd1fd0a4f28419497f9722a3daafe3b4186f6b6457e090600090a35050565b600081604051602001611dfd9190613559565b6040516020818303038152906040528051906020012083604051602001611e249190613559565b6040516020818303038152906040528051906020012014905092915050565b8173ffffffffffffffffffffffffffffffffffffffff168373ffffffffffffffffffffffffffffffffffffffff1603611efe576040517f08c379a000000000000000000000000000000000000000000000000000000000815260206004820152602960248201527f455243313135353a2073657474696e6720617070726f76616c2073746174757360448201527f20666f722073656c66000000000000000000000000000000000000000000000060648201526084016107d4565b73ffffffffffffffffffffffffffffffffffffffff83811660008181526001602090815260408083209487168084529482529182902080547fffffffffffffffffffffffffffffffffffffffffffffffffffffffffffffff001686151590811790915591519182527f17307eab39ab6107e8899845ad3d59bd9653f200f220920489ca2b5937696c31910160405180910390a3505050565b73ffffffffffffffffffffffffffffffffffffffff8416612039576040517f08c379a000000000000000000000000000000000000000000000000000000000815260206004820152602560248201527f455243313135353a207472616e7366657220746f20746865207a65726f20616460448201527f647265737300000000000000000000000000000000000000000000000000000060648201526084016107d4565b33600061204585612890565b9050600061205285612890565b90506120628389898585896122c4565b60008681526020818152604080832073ffffffffffffffffffffffffffffffffffffffff8c16845290915290205485811015612120576040517f08c379a000000000000000000000000000000000000000000000000000000000815260206004820152602a60248201527f455243313135353a20696e73756666696369656e742062616c616e636520666f60448201527f72207472616e736665720000000000000000000000000000000000000000000060648201526084016107d4565b60008781526020818152604080832073ffffffffffffffffffffffffffffffffffffffff8d8116855292528083208985039055908a1682528120805488929061216a908490613206565b9091555050604080518881526020810188905273ffffffffffffffffffffffffffffffffffffffff808b16928c821692918816917fc3d58168c5ae7397731d063d5bbf3d657854427343f4c083240f7aacaa2d0f62910160405180910390a46121d7848a8a8a8a8a6128db565b505050505050505050565b6000807a184f03e93ff9f4daa797ed6e38ed64bf6a1f010000000000000000831061222b577a184f03e93ff9f4daa797ed6e38ed64bf6a1f010000000000000000830492506040015b6d04ee2d6d415b85acef81000000008310612257576d04ee2d6d415b85acef8100000000830492506020015b662386f26fc10000831061227557662386f26fc10000830492506010015b6305f5e100831061228d576305f5e100830492506008015b61271083106122a157612710830492506004015b606483106122b3576064830492506002015b600a831061080d5760010192915050565b73ffffffffffffffffffffffffffffffffffffffff85166123585760005b8351811015612356578281815181106122fd576122fd613251565b60200260200101516003600086848151811061231b5761231b613251565b6020026020010151815260200190815260200160002060008282546123409190613206565b9091555061234f905081613219565b90506122e2565b505b73ffffffffffffffffffffffffffffffffffffffff8416611c0b5760005b835181101561248657600084828151811061239357612393613251565b6020026020010151905060008483815181106123b1576123b1613251565b6020026020010151905060006003600084815260200190815260200160002054905081811015612463576040517f08c379a000000000000000000000000000000000000000000000000000000000815260206004820152602860248201527f455243313135353a206275726e20616d6f756e74206578636565647320746f7460448201527f616c537570706c7900000000000000000000000000000000000000000000000060648201526084016107d4565b6000928352600360205260409092209103905561247f81613219565b9050612376565b50505050505050565b73ffffffffffffffffffffffffffffffffffffffff84163b15611c0b576040517fbc197c8100000000000000000000000000000000000000000000000000000000815273ffffffffffffffffffffffffffffffffffffffff85169063bc197c81906125069089908990889088908890600401613575565b6020604051808303816000875af192505050801561255f575060408051601f3d9081017fffffffffffffffffffffffffffffffffffffffffffffffffffffffffffffffe016820190925261255c918101906135e0565b60015b6126485761256b6135fd565b806308c379a0036125be575061257f613619565b8061258a57506125c0565b806040517f08c379a00000000000000000000000000000000000000000000000000000000081526004016107d49190612b9b565b505b6040517f08c379a000000000000000000000000000000000000000000000000000000000815260206004820152603460248201527f455243313135353a207472616e7366657220746f206e6f6e2d4552433131353560448201527f526563656976657220696d706c656d656e74657200000000000000000000000060648201526084016107d4565b7fffffffff0000000000000000000000000000000000000000000000000000000081167fbc197c810000000000000000000000000000000000000000000000000000000014612486576040517f08c379a000000000000000000000000000000000000000000000000000000000815260206004820152602860248201527f455243313135353a204552433131353552656365697665722072656a6563746560448201527f6420746f6b656e7300000000000000000000000000000000000000000000000060648201526084016107d4565b73ffffffffffffffffffffffffffffffffffffffff84166127bc576040517f08c379a000000000000000000000000000000000000000000000000000000000815260206004820152602160248201527f455243313135353a206d696e7420746f20746865207a65726f2061646472657360448201527f730000000000000000000000000000000000000000000000000000000000000060648201526084016107d4565b3360006127c885612890565b905060006127d585612890565b90506127e6836000898585896122c4565b60008681526020818152604080832073ffffffffffffffffffffffffffffffffffffffff8b16845290915281208054879290612823908490613206565b9091555050604080518781526020810187905273ffffffffffffffffffffffffffffffffffffffff808a1692600092918716917fc3d58168c5ae7397731d063d5bbf3d657854427343f4c083240f7aacaa2d0f62910160405180910390a4612486836000898989896128db565b604080516001808252818301909252606091600091906020808301908036833701905050905082816000815181106128ca576128ca613251565b602090810291909101015292915050565b73ffffffffffffffffffffffffffffffffffffffff84163b15611c0b576040517ff23a6e6100000000000000000000000000000000000000000000000000000000815273ffffffffffffffffffffffffffffffffffffffff85169063f23a6e619061295290899089908890889088906004016136c1565b6020604051808303816000875af19250505080156129ab575060408051601f3d9081017fffffffffffffffffffffffffffffffffffffffffffffffffffffffffffffffe01682019092526129a8918101906135e0565b60015b6129b75761256b6135fd565b7fffffffff0000000000000000000000000000000000000000000000000000000081167ff23a6e610000000000000000000000000000000000000000000000000000000014612486576040517f08c379a000000000000000000000000000000000000000000000000000000000815260206004820152602860248201527f455243313135353a204552433131353552656365697665722072656a6563746560448201527f6420746f6b656e7300000000000000000000000000000000000000000000000060648201526084016107d4565b803573ffffffffffffffffffffffffffffffffffffffff81168114612aac57600080fd5b919050565b60008060408385031215612ac457600080fd5b612acd83612a88565b946020939093013593505050565b7fffffffff00000000000000000000000000000000000000000000000000000000811681146116dd57600080fd5b600060208284031215612b1b57600080fd5b8135612b2681612adb565b9392505050565b60005b83811015612b48578181015183820152602001612b30565b50506000910152565b60008151808452612b69816020860160208601612b2d565b601f017fffffffffffffffffffffffffffffffffffffffffffffffffffffffffffffffe0169290920160200192915050565b602081526000612b266020830184612b51565b600060208284031215612bc057600080fd5b5035919050565b7f4e487b7100000000000000000000000000000000000000000000000000000000600052604160045260246000fd5b7fffffffffffffffffffffffffffffffffffffffffffffffffffffffffffffffe0601f830116810181811067ffffffffffffffff82111715612c3a57612c3a612bc7565b6040525050565b600067ffffffffffffffff821115612c5b57612c5b612bc7565b5060051b60200190565b600082601f830112612c7657600080fd5b81356020612c8382612c41565b604051612c908282612bf6565b83815260059390931b8501820192828101915086841115612cb057600080fd5b8286015b84811015612ccb5780358352918301918301612cb4565b509695505050505050565b600082601f830112612ce757600080fd5b813567ffffffffffffffff811115612d0157612d01612bc7565b604051612d3660207fffffffffffffffffffffffffffffffffffffffffffffffffffffffffffffffe0601f8501160182612bf6565b818152846020838601011115612d4b57600080fd5b816020850160208301376000918101602001919091529392505050565b600080600080600060a08688031215612d8057600080fd5b612d8986612a88565b9450612d9760208701612a88565b9350604086013567ffffffffffffffff80821115612db457600080fd5b612dc089838a01612c65565b94506060880135915080821115612dd657600080fd5b612de289838a01612c65565b93506080880135915080821115612df857600080fd5b50612e0588828901612cd6565b9150509295509295909350565b60008060408385031215612e2557600080fd5b823567ffffffffffffffff80821115612e3d57600080fd5b818501915085601f830112612e5157600080fd5b81356020612e5e82612c41565b604051612e6b8282612bf6565b83815260059390931b8501820192828101915089841115612e8b57600080fd5b948201945b83861015612eb057612ea186612a88565b82529482019490820190612e90565b96505086013592505080821115612ec657600080fd5b50612ed385828601612c65565b9150509250929050565b600081518084526020808501945080840160005b83811015612f0d57815187529582019590820190600101612ef1565b509495945050505050565b602081526000612b266020830184612edd565b60008060408385031215612f3e57600080fd5b82359150602083013567ffffffffffffffff811115612f5c57600080fd5b612ed385828601612cd6565b60008060408385031215612f7b57600080fd5b612f8483612a88565b915060208301358015158114612f9957600080fd5b809150509250929050565b82518152602083015160208201526040830151151560408201526060830151606082015260808301511515608082015260c060a08201526000612fea60c0830184612b51565b949350505050565b6000806040838503121561300557600080fd5b61300e83612a88565b915061301c60208401612a88565b90509250929050565b600080600080600060a0868803121561303d57600080fd5b61304686612a88565b945061305460208701612a88565b93506040860135925060608601359150608086013567ffffffffffffffff81111561307e57600080fd5b612e0588828901612cd6565b60006020828403121561309c57600080fd5b612b2682612a88565b6000602082840312156130b757600080fd5b5051919050565b7f4e487b7100000000000000000000000000000000000000000000000000000000600052601160045260246000fd5b600082613123577f4e487b7100000000000000000000000000000000000000000000000000000000600052601260045260246000fd5b500490565b7f68747470733a2f2f697066732e626c6f636b73636170652e6e6574776f726b2f81527f69706e732f6b3531717a6935757175356469766b66613276787532693731796860208201527f6a336b36726d36626776676e64347130306834663830636234696d736739757960408201527f32396c2f000000000000000000000000000000000000000000000000000000006060820152600082516131d2816064850160208701612b2d565b7f2e6a736f6e0000000000000000000000000000000000000000000000000000006064939091019283015250606901919050565b8082018082111561080d5761080d6130be565b60007fffffffffffffffffffffffffffffffffffffffffffffffffffffffffffffffff820361324a5761324a6130be565b5060010190565b7f4e487b7100000000000000000000000000000000000000000000000000000000600052603260045260246000fd5b8181038181111561080d5761080d6130be565b6000817fffffffffffffffffffffffffffffffffffffffffffffffffffffffffffffffff04831182151516156132cb576132cb6130be565b500290565b600181811c908216806132e457607f821691505b602082108103610b93577f4e487b7100000000000000000000000000000000000000000000000000000000600052602260045260246000fd5b6000602080835260008454613331816132d0565b80848701526040600180841660008114613352576001811461338a576133b8565b7fffffffffffffffffffffffffffffffffffffffffffffffffffffffffffffff008516838a01528284151560051b8a010195506133b8565b896000528660002060005b858110156133b05781548b8201860152908301908801613395565b8a0184019650505b509398975050505050505050565b601f82111561340c57600081815260208120601f850160051c810160208610156133ed5750805b601f850160051c820191505b81811015611c0b578281556001016133f9565b505050565b815167ffffffffffffffff81111561342b5761342b612bc7565b61343f8161343984546132d0565b846133c6565b602080601f831160018114613492576000841561345c5750858301515b7fffffffffffffffffffffffffffffffffffffffffffffffffffffffffffffffff600386901b1c1916600185901b178555611c0b565b6000858152602081207fffffffffffffffffffffffffffffffffffffffffffffffffffffffffffffffe08616915b828110156134df578886015182559484019460019091019084016134c0565b508582101561351b57878501517fffffffffffffffffffffffffffffffffffffffffffffffffffffffffffffffff600388901b60f8161c191681555b5050505050600190811b01905550565b60408152600061353e6040830185612edd565b82810360208401526135508185612edd565b95945050505050565b6000825161356b818460208701612b2d565b9190910192915050565b600073ffffffffffffffffffffffffffffffffffffffff808816835280871660208401525060a060408301526135ae60a0830186612edd565b82810360608401526135c08186612edd565b905082810360808401526135d48185612b51565b98975050505050505050565b6000602082840312156135f257600080fd5b8151612b2681612adb565b600060033d11156136165760046000803e5060005160e01c5b90565b600060443d10156136275790565b6040517ffffffffffffffffffffffffffffffffffffffffffffffffffffffffffffffffc803d016004833e81513d67ffffffffffffffff816024840111818411171561367557505050505090565b828501915081518181111561368d5750505050505090565b843d87010160208285010111156136a75750505050505090565b6136b660208286010187612bf6565b509095945050505050565b600073ffffffffffffffffffffffffffffffffffffffff808816835280871660208401525084604083015283606083015260a0608083015261370660a0830184612b51565b97965050505050505056fe68747470733a2f2f697066732e626c6f636b73636170652e6e6574776f726b2f697066732f516d5052446a5367336964785445384254533337756d446d545a324c5a62337833344c5642514d79616a396e5679a26469706673582212209fab456873f585d4c5a15d0f6fd36964ea2c02426b8150e5ab345a67dea2d72764736f6c6343000810003368747470733a2f2f697066732e626c6f636b73636170652e6e6574776f726b2f69706e732f6b3531717a6935757175356469766b6661327678753269373179686a336b36726d36626776676e64347130306834663830636234696d736739757932396c2f7b69647d2e6a736f6e",
    "linkReferences": {}
  },
  "methodIdentifiers": {
    "balanceOf(address,uint256)": "00fdd58e",
    "balanceOfBatch(address[],uint256[])": "4e1273f4",
    "changeETHLimit(uint256)": "b1251026",
    "closeSoloVault()": "63b613f2",
    "contractURI()": "e8a3d485",
    "exists(uint256)": "4f558e79",
    "getAvailableRPLStake()": "9fe8d3aa",
    "getBalance()": "12065fe0",
    "getCurrentEthLimit()": "354228be",
    "getMetadata(uint256)": "a574cea4",
    "getReqRPLStake()": "02943854",
    "getTokenID()": "6ba367a3",
    "hasNodeEnoughRPLStake()": "66f9fa3a",
    "isApprovedForAll(address,address)": "e985e9c5",
    "isVaultOpen()": "ec36d35e",
    "name()": "06fdde03",
    "openSoloVault()": "f9d7afd7",
    "owner()": "8da5cb5b",
    "renounceOwnership()": "715018a6",
    "safeBatchTransferFrom(address,address,uint256[],uint256[],bytes)": "2eb2c2d6",
    "safeTransferFrom(address,address,uint256,uint256,bytes)": "f242432a",
    "setApprovalForAll(address,bool)": "a22cb465",
    "setBlockscapeRocketPoolNode(address)": "f6b76685",
    "setWithdrawFee(uint256)": "b6ac642a",
    "supportsInterface(bytes4)": "01ffc9a7",
    "symbol()": "95d89b41",
    "totalSupply()": "18160ddd",
    "totalSupply(uint256)": "bd85b039",
    "transferOwnership(address)": "f2fde38b",
    "tryDepositSoloVault()": "70a383e0",
    "tryWithdrawBatch()": "f649b014",
    "updateValidator(uint256,bytes)": "8d8b7ca9",
    "uri(uint256)": "0e89341c",
    "userRequestWithdraw(uint256)": "6ea5ba1a",
    "viewUserRequestWithdraw(uint256)": "8776d1d7",
    "withdraw(uint256)": "2e1a7d4d"
  },
  "id": 32
}